:020000040800F2
:1000000010040020A9010008AF08000841080008FA
:10001000AD080008F1010008B10900080000000067
:10002000000000000000000000000000D3080008ED
:100030003502000800000000D1080008D5080008BB
:10004000C3010008C3010008C3010008C301000880
:10005000C3010008C3010008C3010008C301000870
:10006000C3010008C3010008C3010008C301000860
:10007000C3010008C3010008C3010008C301000850
:10008000C3010008C3010008C3010008000000000C
:10009000000000000000000000000000C301000894
:1000A000C3010008C3010008C3010008C301000820
:1000B000C3010008C3010008C3010008C301000810
:1000C000C3010008C3010008C3010008C301000800
:1000D000C3010008C3010008C301000800000000BC
:1000E000C3010008C3010008C301000800000000AC
:1000F000000000000000000000000000C301000834
:1001000000000000C3010008C3010008C30100088B
:1001100000000000000000000000000000000000DF
:10012000C3010008C3010008C3010008C30100089F
:10013000C3010008000000000000000000000000F3
:10014000000000000000000000000000C3010008E3
:10015000C3010008C3010008C3010008C30100086F
:10016000C3010008C30100080000000000000000F7
:10017000000000000000000000000000000000007F
:1001800000000000C30100080000000000000000A3
:10019000C3010008DFF80CD000F018F80048004751
:1001A000D10900081004002006488047064800478F
:1001B000FEE7FEE7FEE7FEE7FEE7FEE7FEE7FEE717
:1001C000FEE7FEE75D09000895010008064C074DB3
:1001D00006E0E06840F0010394E807009847103417
:1001E000AC42F6D3FFF7DAFF080A0008280A000835
:1001F000FEE700000D48016841F0040101600C4871
:10020000016821F04061016009480830016821F06F
:1002100040610160016841F080610160001D01687A
:1002200021F040610160002070470000303802403A
:100230000008024070470000014800687047000055
:100240000000002002480168491C0160704700005E
:10025000000000200B4810B5016841F400710160F6
:10026000016841F480610160016841F480710160BE
:10027000032000F03FF80F2000F006F800F018F817
:10028000002010BD003C024010B5044607484FF462
:100290007A710068B0FBF1F000F0BEFA002221464E
:1002A000501E00F007F8002010BD000008000020DC
:1002B00070470000F0B40E4B1B680C46C3F30223DA
:1002C000C3F10705042D00D90425191D072901D202
:1002D000002300E0DB1E012606FA05F1491E21403D
:1002E00099409E40761E16403143F0BC00F0E0BAC3
:1002F0000CED00E0064900F0070208684FF6FF0326
:10030000184040EA0220034A10430860704700008A
:100310000CED00E00000FA052DE9F047DFF86491EC
:1003200005460F46D9F8000000F00F01F8B28046EC
:10033000B94208D2014689F80010D9F8000000F04F
:100340000F00B84274D128784F4C800705D520683B
:10035000A96820F0F000084320602878C00759D031
:1003600049496868083901281AD002281BD0032897
:1003700019D00968890700295ADA216821F0030198
:1003800001432160FFF758FF6968064641F2883053
:10039000012911D002291DD00329824627D035E03A
:1003A00009688903E7E709688901E4E7FFF744FF83
:1003B000811B514501D926E082462068C0F38100A7
:1003C0000128F3D126E000BFFFF736FF811B51451E
:1003D00001D918E082462068C0F381000228F3D1D9
:1003E00018E000BFFFF728FF811B51450BD820689C
:1003F000C0F381000328F5D10CE000BFFFF71CFF1C
:10040000811B514502D90320BDE8F087206810F018
:100410000C0FF3D1D9F80010484601F00F01B94292
:1004200008D980F80080006800F00F00B84201D0C1
:100430000120E9E72878400705D52068E96820F41D
:10044000E050084320602878000706D52068296915
:1004500020F4604040EAC100206000F01BF82168F1
:10046000F02292FAA2F201F0F001B2FA82F2D14047
:10047000064A515CC840064908600F20FFF704FF98
:100480000020C1E7003C024008380240F80900089B
:100490000800002030B51948006810F00C01184819
:1004A00012D0441004290ED008290DD11349091F78
:1004B0000A6802F03F030A68550247F6C07204D585
:1004C000B4FBF3F003E0204630BDB0FBF3F00B6863
:1004D0000968134092FAA2F2B2FA82F2D34058436A
:1004E0004FF4403292FAA2F201F44031B2FA82F2B1
:1004F000D140491C4900B0FBF1F030BD0838024042
:100500000024F4002DE9F84F0546DFF8FC9200784E
:10051000A9F1040BC007ABF1040449D0D9F80010CD
:100520004846C1F38101012908D00068C0F3810069
:1005300002280AD1DBF80000400206D520688003BB
:1005400036D5686800286ED032E06868B0F5803F24
:1005500010D0B0F5A02F206810D020F4803020609B
:10056000206820F4802020606868A0B1FFF764FE56
:1005700006460CE0206840F48030F4E740F4802028
:100580002060F7E7FFF758FE801B642871D82068C9
:100590008003F7D50CE0FFF74FFE064605E000BFED
:1005A000FFF74AFE801B6428F0D820688003F7D448
:1005B0002878964F80074FF0010A4FF0000841D588
:1005C000D9F80010484611F00C0F08D00068C0F3AD
:1005D000810002280AD1DBF80000400206D420681E
:1005E000800713D5E86801281DD10FE0E868D8B16D
:1005F000C7F800A0FFF720FE064604E0FFF71CFE48
:10060000801B0228C2D820688007F7D52068F8220E
:1006100092FAA2F22969B2FA82F220F0F80091402F
:10062000084320600EE0ECE0C7F80080FFF704FE0E
:10063000064604E0FFF700FE801B022819D8206858
:100640008007F7D42878000724D57148696989B1F3
:10065000C0F800A0FFF7F0FD064604E0FFF7ECFD50
:10066000801B022805D868486C3000688007F5D5E3
:1006700010E07AE0C0F80080FFF7DEFD064604E0F7
:10068000FFF7DAFD801B02286FD85F486C300068E6
:100690008007F5D42878400753D55B483830016887
:1006A00041F080510160006800F08050009059488E
:1006B000016841F480710160FFF7BEFD064604E069
:1006C000FFF7BAFD801B02284FD852480068C005CA
:1006D000F6D54D4EA868683601280FD00528306839
:1006E00010D020F001003060306820F0040030604D
:1006F000A868B8B1FFF7A0FD00900FE0306840F0A7
:100700000100F4E740F004003060F7E7FFF794FDE4
:100710000099411A41F2883081426AD830688007D6
:10072000F4D50EE0FFF788FD009007E0FFF784FDA9
:100730000099411A41F2883081425AD830688007C6
:10074000F4D4A869E8B3D9F80010C1F381010229F3
:1007500057D00228C7F8608003D0FFF76DFD05462B
:100760004AE0FFF769FD064605E042E0FFF764FD59
:10077000801B02283DD820688001F7D4D5E9070105
:10078000084347F6C07292FAA2F2696AB2FA82F29C
:100790009140AA6A4FF0FF3303EB52024FF440330B
:1007A00093FAA3F3B3FA83F39A40114308434FF04B
:1007B000706292FAA2F2E96AB2FA82F291400843B8
:1007C00000E01CE0CBF80000C7F860A0FFF734FDA4
:1007D000054604E0FFF730FD401B022809D82068D9
:1007E0008001F7D50BE000BFFFF726FD401B022874
:1007F00002D90320BDE8F88F20688001F4D40020DE
:10080000F8E70120F6E70000083802400000474200
:10081000800E47420070004010B5401EB0F1807F4E
:1008200001D3012010BD4FF0E02460610F2160175B
:1008300000F03EF80020A06107202061002010BDDC
:10084000FEE70120704700000F48016841F00101F8
:1008500001600E48016821F440610160016841F4C3
:1008600080610160416821F020014160816821F4CC
:1008700040618160816841F480618160C16821F4D8
:100880004061C160002070473038024000000240E3
:1008900028B904488169044A126811438161002023
:1008A0007047000000000240F4090008FEE77047AE
:1008B0000907090E002806DA00F00F0000F1E02019
:1008C00080F8141D704700F1E02080F80014704794
:1008D00070477047FFF7B6BC30B51E4893B0002490
:1008E000016841F080510160006800F08050119073
:1008F0001948016821F4404141F400410160006859
:10090000022500F440401190012003901020009532
:1009100006950490CDE907404FF4A8700990042093
:100920000A9007200B906846FFF7ECFD00B1FEE748
:100930000F20CDE90C054FF48050CDE90E40022187
:100940000CA81094FFF7E8FC002800D0FEE713B0D5
:1009500030BD00004038024000700040104801687F
:1009600041F4700101600F48016841F0010101602C
:100970000C4A00210832116002680B4B1A400260D9
:10098000031D0A4A1A60026822F4802202600548A8
:100990000C30016002495806803908607047000039
:1009A00088ED00E000380240FFFFF6FE1030002422
:1009B000FEE702E008C8121F08C1002AFAD17047FA
:1009C0007047002001E001C1121F002AFBD17047CF
:1009D000FFF740FCFFF780FFFFF736FFFFF70AFC49
:1009E000FFF72FFF024C2068FFF752FFFBE70000E4
:1009F00004000020200000000000000001020304A9
:100A00000102030406070809280A00080000002064
:100A10000C000000B2090008340A00080C00002095
:100A200004040000C20900080000000000000000EB
:040A30000024F400AA
:040000050800019559
:00000001FF
