:020000040800F2
:10000000C00F0020F1030008F9030008FB030008FB
:10001000FD030008FF0300080104000800000000C1
:10002000000000000000000000000000C102000805
:10003000050400080000000079030008DD03000843
:100040000B0400080B0400080B0400080B04000854
:100050000B0400080B0400080B0400080B04000844
:100060000B0400080B0400080B0400080B04000834
:100070000B0400080B0400080B0400080B04000824
:100080000B0400080B0400080B040008000000002B
:100090000000000000000000000000000B04000849
:1000A0000B0400080B0400080B0400080B040008F4
:1000B0000B0400080B0400080B0400080B040008E4
:1000C0000B0400080B0400080B0400080B040008D4
:1000D0000B0400080B0400080B04000800000000DB
:1000E0000B0400080B0400080B04000800000000CB
:1000F0000000000000000000000000000B040008E9
:10010000000000000B0400080B0400080B040008AA
:1001100000000000000000000000000000000000DF
:100120000B0400080B0400080B0400080B04000873
:100130000B040008000000000000000000000000A8
:100140000000000000000000000000000B04000898
:100150000B0400080B0400080B0400080B04000843
:100160000B0400080B040008000000000000000061
:10017000000000000000000000000000000000007F
:10018000000000000B040008000000000000000058
:100190000B04000800F002F800F03CF80AA090E818
:1001A000000C82448344AAF10107DA4501D100F032
:1001B00031F8AFF2090EBAE80F0013F0010F18BFC3
:1001C000FB1A43F0010318472819000048190000E2
:1001D000103A24BF78C878C1FAD8520724BF30C873
:1001E00030C144BF04680C60704700000023002445
:1001F00000250026103A28BF78C1FBD8520728BF37
:1002000030C148BF0B6070471FB501F033FC1FBD04
:1002100010B510BD00F01DF91146FFF7F5FF0FB442
:1002200000F00CF80FBC00F02BFB00F006F903B453
:10023000FFF7EEFF03BC00F087FA000004B000F007
:1002400045FB0448002100F095FB00F051FB00F055
:10025000F4F800001000002080F309887047EFF3E5
:1002600009807047684680F3098804480078C00711
:1002700014BF0220032080F314887047B01A0008CE
:10028000DFF818C0EFF305831B0618BF6047EFF3D4
:100290001483DB0708BF604700DF70473F0A000890
:1002A000DFF818C0EFF305831B0618BF6047EFF3B4
:1002B0001483DB0708BF604700DF7047250C000888
:1002C000EFF30980816911F8021CE1BB90E80F107F
:1002D00010B5E047BDE81040EFF3098C8CE807004B
:1002E000214B93E80600914208BF704741B91EF0C8
:1002F000100F16D11D49086820F00100086010E0B9
:100300001EF0100F06BF2CED108A0120002081F88E
:1003100025002CE9F00FC1F828C00CB401F024F836
:100320000CBC1A60D2F828C0BCE8F00F92F8250087
:1003300000280EBF6FF0020E6FF0120EBCEC108A98
:100340008CF30988704710B5094A1268914209D8A0
:10035000084C54F8214090E80F10A047EFF3098CA7
:100360008CE80F0010BD00003000002034EF00E0EA
:100370009C0400089C04000810B500F0B9FEBDE81C
:100380001040154B93E80600914208BF7047EFF309
:10039000098C1EF0100F06BF2CED108A01200020E2
:1003A00081F825002CE9F00FC1F828C00CB400F04A
:1003B000DBFF0CBC1A60D2F828C0BCE8F00F92F842
:1003C000250000280EBF6FF0020E6FF0120EBCEC7D
:1003D000108A8CF3098870473000002010B501F0B6
:1003E0008BF8CCE710B500F029FB01F085F8C6E7E3
:1003F0000948804709480047FEE7FEE7FEE7FEE7B9
:10040000FEE7FEE7FEE7FEE7FEE7FEE704480549F4
:10041000054A064B70470000710600089501000868
:10042000C0090020C00F0020C00B0020C00B00201E
:10043000004870475C090020704710B50446AFF3D0
:1004400000802046BDE81040FFF7F1BE70477047BE
:1004500070477546FFF7ECFFAE4605006946534608
:1004600020F00700854618B020B5FFF7CFFFBDE8A4
:1004700020404FF000064FF000074FF000084FF00B
:10048000000B21F00701AC46ACE8C009ACE8C0099C
:10049000ACE8C009ACE8C0098D4670470000000018
:1004A0000F48016841F0010101600E4801680160D8
:1004B000016841F0A8410160001D01680160001D54
:1004C00001680160016841F0A8410160001D0168F8
:1004D000016004494FF46040143108600020704707
:1004E00030380240000802400F48016841F0010125
:1004F00001600E48016821F440610160016841F427
:1005000080610160416821F020014160816821F42F
:1005100040618160816841F480618160C16821F43B
:100520004061C16000207047303802400000024046
:100530000348816941F40011816100207047000087
:10054000000002400348816941F0200181610020E0
:1005500070470000000002402449086840F0010094
:10056000086008688007FCD5204800220830026037
:10057000026812F00C0FFBD11D4A4FF48073136018
:10058000136843F400731360136843F480631360CB
:10059000136843F00503136002680260026842F4C6
:1005A000A0520260026842F4004202600A6822F02F
:1005B00080720A600D4B0F4A1B1D1A600A6842F0D8
:1005C00080720A6000E000BF0A689201FBD50168F2
:1005D00021F003010160016841F00201016001683E
:1005E000C1F381010229FAD17047000000380240AE
:1005F000003C02401060030870B5194C2068194A8D
:1006000010F00C01184804D05510042903D0082913
:1006100003D002601BE0056019E01149091F0B6857
:10062000C3F380560B6803F03F0316B1B5FBF3F23A
:1006300001E0B2FBF3F20B680968C3F388135A4375
:10064000C1F30141491C4900B2FBF1F1016021688D
:10065000064AC1F30311515C0268CA40026070BDD2
:10066000083802400024F400000000207E1A000830
:100670001048016841F4700101600F48016841F0C1
:10068000010101600C4A00210832116002680B4B25
:100690001A400260031D0A4A1A60026822F480228E
:1006A000026005480C300160024958068039086034
:1006B0007047000088ED00E000380240FFFFF6FEC2
:1006C0001030002410B5002A06DA22F00042D21DB4
:1006D00022F00703102203E0D21C22F003030C22B5
:1006E00013B19C188C4201D9012010BD0244014471
:1006F0008360C0E90021C91AD018884202D810606E
:100700000246F9E70020106010BD00000549097895
:10071000002905D000684FF6FF71DFF80CC000DF3C
:10072000704700002900002089100008044909785A
:10073000002903D00068DFF80CC000DF704700001C
:1007400029000020B10F0008FEE7000008480068FB
:10075000C0010BD507480068C00707D0054880389E
:100760000068002802DA0449012008707047000080
:10077000FCED00E0800E00E04C0000204FF06042F5
:10078000D36F002BFCD0036BD367D36F002BFCD04F
:10079000C07840EA0120A2F87C0070474FF0604129
:1007A000CA6F002AFCD081F87C0070470EB5802209
:1007B00000B109B110460AE001780129FAD101A976
:1007C00000F020F8042801D0002000E01020DDE92E
:1007D000011203B000BD70B50D46040003D012B97C
:1007E0002078012801D0802070BD204600F0DAFA80
:1007F00028B12946204600F02EF8002070BD812047
:1008000070BD000010B504468089002822D06089A0
:1008100004EB8000006908606078022805D100219F
:10082000204600F0B3FC00F0A1FC04F10C0000BF76
:10083000D0E85F1F491E8AB2C0E8512F0029F7D1C6
:100840006089401C80B26081E189884201D100202A
:100850006081042010BD10B500F098FCBDE8104088
:1008600000F084BC4FF4FA74FFF76CFE204600F0F1
:1008700021F8FFF75DFE204600F01CF8F4E70000C9
:10088000FFF76AFEFFF7B8FE00F020F8FFF708FE5A
:10089000FFF72AFE00F092F8044C00212060044883
:1008A00000F068F8606000F023F8FEE70400002024
:1008B000901A0008EFF3058109B182207047DFF834
:1008C00008C000DF7047000011180008EFF3058032
:1008D00008B182207047EFF31480C00703D0DFF81F
:1008E0000CC000DF704700F09DBF00002518000815
:1008F00088B0EFF3058010B1822008B07047EFF3A5
:10090000148010F00301134806D001291BD00229DE
:1009100011D0032919D113E008A981F309880078BF
:10092000C0070BD05FF0020080F31488BFF34F8F35
:10093000BFF36F8F09E00078C00706D10320F3E70B
:100940000078C00701D0FF20D7E7DFF80CC000DF38
:10095000D3E70000B01A000895180008EFF30582ED
:100960000AB1FFF723BFDFF808C000DF70470000BF
:1009700001190008EFF305820AB100207047EFF378
:100980001482064B02F001025B781A4303D0DFF8B1
:1009900010C000DF704700F0D1BF00002800002029
:1009A0003D190008DFF80CC000DFDFF80CC000DFE5
:1009B000FEE70000AD190008C9190008EFF3058033
:1009C00008B100207047DFF808C000DF7047000062
:1009D000AD190008DFF804C000DF7047011A0008F5
:1009E000094C4FF0FF3529462068FFF7B7FF024654
:1009F0000846102AF7D1FFF7EDFF0028F3D0024692
:100A000008469047EFE7000024000020FEE720BFE3
:100A1000FDE70000074801684FF0E0204161002138
:100A20008161072101610448016841F07F41016053
:100A300040177047AC1A000820ED00E0704750E8FE
:100A4000001F31B10B6840E80032002AF7D1084698
:100A50007047BFF32F8FFAE710B568B161B10B3162
:100A600021F00302016844680B1A1B1B934205D254
:100A7000084609680029F5D1002010BD210007D0E3
:100A800021180368C1E90032016001F1080010BDBE
:100A90004260083010BD000070B50D46002812D02D
:100AA0004FF6FF71084C884204D222680146104676
:100AB00000F09AFB20684570044800F0DDF8BDE8BE
:100AC000704000F063BC70BD300000202C09002095
:100AD0000F4810B50D4942680E480B6800689342F4
:100AE00004D00A60CB88421E1A448A808A8880B269
:100AF00082420AD100200860054800F0BDF8014696
:100B0000BDE81040024800F093BB10BD4400002037
:100B10002C0900204000002070B5194DE86800281D
:100B20002CD0A88A401EA882002621E0A06838B1F7
:100B300061684160606810B1A16881606660A6600C
:100B40000F482146183800F073FBA08AA88260780D
:100B5000042804D10B49E08A09880844A0820120B6
:100B60006070E068E860E06808B10561E6602661F1
:100B7000A88A002802D1EC68002CD7D170BD0000F3
:100B8000440900204000002070B504000FD00D4D36
:100B9000A17801262868827891420CD900F064FB84
:100BA000286846702046BDE8704000F0EFBB06485C
:100BB00000F062F8F7E766702146BDE87040024831
:100BC00000F036BB300000202C0900200321FFF785
:100BD00063BF000010B50446008B08432083627891
:100BE000618B062A18D0052A19D1084217D001EACC
:100BF0000002628388432083204600F06FFB0120BF
:100C00006070628B0821204600F060FB2146BDE841
:100C10001040034800F00CBB31EA0002EAD010BDDE
:100C20002C090020814202D342688A4201D8012067
:100C3000704702680A60BFF35F8F50E8003F0A68A0
:100C40009A42F6D140E80012002AF2D10020704703
:100C500068B161B10022083902E00246006830B193
:100C60008842FAD12AB10068106000207047012044
:100C7000704700214160F8E70146406842684A60D9
:100C80000B780022022B05D0012B03D0032B01D0BF
:100C90004260704743680BB1996042608260704760
:100CA000810700D00020704770B50446002015462B
:100CB000207001226270A17084F824106060A0602E
:100CC000E06020612062A082E0822083608384F85B
:100CD0002500E08C18B90548FFF7B1FEE06229460F
:100CE0002046BDE8704000F01DB80000E80100207B
:100CF00008B1082901D2012070470144091F0022D0
:100D000001600A60426010467047000003480021FD
:100D1000016003490988C180704700004400002039
:100D2000A81A000870B5C28C1C4D930802D12A88FD
:100D3000C2F38D03C26A02EB8302540700D5121F6F
:100D40004FF0807442E9021400242646B2F14002BA
:100D500042F82460641C0E2CFAD3C46914628262C7
:100D600001632968C90014D5112B12D94FF0FF3146
:100D7000103B11EB53014FF0CC3305D042F8043C4B
:100D800042F8083D491EF9D1C16A121F8A4200D9B2
:100D90001360C06A0249016070BD0000A41A000817
:100DA000A52E5AE2C1898089081A70470122027073
:100DB0000022427082704260028142811039828139
:100DC0008908C181704700002DE9F0410446406860
:100DD0000E464FF0000804F10C05E8B360780127D7
:100DE00001283ED0022813D003285CD10846FFF723
:100DF00026FE050057D02046FFF73EFF0446294651
:100E000000F05EFA6770204600F068FA214621E0A3
:100E10002046FFF731FF0646002100F051FA2189F4
:100E2000F06904EB81010861D5E85F0F401C81B2D5
:100E3000C5E8501F0028F7D12089401C80B22081CE
:100E4000E189884201D1A4F808807770304600F02B
:100E500045FA3146174800E00CE0BDE8F04100F0EB
:100E6000E7B92046FFF708FF04463246102100F09C
:100E70002DFAC7E7A089E189884216D2208904EBC0
:100E800080000661D5E85F0F401C81B2C5E8501FA5
:100E90000028F7D12089401C80B22081E189884256
:100EA00001D1A4F80880BDE8F081BDE8F04103203D
:100EB000FFF7ACBD2C09002070B5044680891546AB
:100EC0000026C0B3608904EB800000690860608977
:100ED000401C80B26081E189884200D166816068EF
:100EE00010B1607802280BD014F10C04D4E85F0F25
:100EF000401E81B2C4E8501F0028F7D1002070BD09
:100F00002046FFF7B9FE0546002100F0D9F92189F6
:100F1000E86904EB810108612089401C80B22081CE
:100F2000E189884200D12681284600F0D7F9284679
:100F3000FFF72AFEE2E7FFE73DB10B486268016870
:100F40002AB1204600F074F908E0012070BD61600C
:100F500001684E60006884600120607008212846A6
:100F6000FFF79AFDF1E7000030000020002814D0C0
:100F7000411C13D00C4A4FF6FE7190420CD800EB86
:100F80004002C2EBC0120948036803EBC202521EC2
:100F9000B2FBF3F0884204D9084670474FF6FF7061
:100FA000704780B27047000000093D00BC1A00087D
:100FB0002DE9F0410446408820B1314DA1682A68EE
:100FC000914202D0FF20BDE8F081401E0004000CD9
:100FD000608053D12968086AA04209D1E06808629C
:100FE00008E0C268A24202D1E268C26002E0104694
:100FF0000028F6D191F824000A6A06E053681BB174
:101000009B78834200D91846D268002AF6D18870AE
:10101000DFF870806168012611B32046FFF72CFECF
:101020000746002100F04CF9384600F057F9668079
:10103000A760386AE0603C622968D8F804008A78C2
:101040008078824201D3384616E00E4800F0F0F86E
:1010500039460C4800F0ECF8286846707E700AE0CB
:10106000D8F804108A782968824207D9054800F028
:10107000DFF8286846700020FFF786FD0020A2E711
:10108000300000202C09002070B5184D0E46044693
:101090004188286839B1A168814209D16088401C23
:1010A0006080002070BDA060016AE1600462F5E725
:1010B00076B18A788078824203D28870A06800F086
:1010C000DDF8606830B12046296800F0B1F808E02A
:1010D000012070BD28686060296800204860286889
:1010E000846009213046FFF7D7FCF1E7300000208B
:1010F00070B51B48012102685170006800F0B4F817
:10110000184D6C7818E000BF05EBC4014868027800
:10111000EAB1012A20D000F00DF9E878641C84427D
:1011200000D100240F48801CD0E84F1F491EC9B2CF
:10113000C0E8421F002AF7D1A8780028E4D16C70DB
:101140000948FFF799FDBDE8704000F01FB9098913
:1011500089B2FFF73FFDE0E78968FFF735FEDCE77E
:1011600030000020580800202C0900200548017894
:1011700011B101214170704703494FF08050086060
:10118000704700003800002004ED00E0F0B4154D79
:10119000AB1CEE784FEA0507D3E84F2FB24202D1DD
:1011A000BFF32F8F11E0521CD4B2C3E8424F002A84
:1011B000F2D100BFD7E84F2F541CB44200D1002415
:1011C000E4B2C7E8434F002BF4D1EB78934205D942
:1011D00005EBC202C2E90101F0BC7047F0BC02207D
:1011E000FFF714BC58080020104A10B5D368ABB103
:1011F00013469B8A03E08CB12246A48A2344D46818
:101200008B42F8D3C460D0600261C46804B120612D
:10121000591A8182908A401A908210BD0024C460BD
:10122000D060C91A02619182848210BD44090020F5
:1012300030B502780023022A03D0012A01D0032A04
:1012400000D101238C7800E01046426812B19578F5
:10125000A542F9D24A6041601BB102B19160886039
:1012600030BD0020FBE7000003494A6842600022CD
:1012700082604860704700002C09002010B5836828
:1012800004462BB9607801280ED1084B03E09B6817
:1012900018780028FBD0204600F034F82146BDE83D
:1012A00010401846FFF7C4BF10BD00002C090020F5
:1012B00090F82510806A09B160307047203070477F
:1012C00010B50C46FFF7F4FF046010BD70B515466D
:1012D0000C46FFF7EDFFC0E9004570BD10B5016990
:1012E00000290ED0C268CA60C36800223BB18B8A55
:1012F000848A23448B82C3681961C26000E08A82B9
:10130000026110BD816839B142684A6041680029B4
:1013100001D0806888607047054906E04A688242CB
:1013200002D140684860704711460029F6D17047E5
:101330002C09002010B5416881B1FFF79DFC0446DF
:10134000FFF7CCFF0120607001462046FFF7B8FF91
:101350002146BDE810400348FFF76ABF4188491C99
:10136000418010BD2C09002006480068D0E90A1011
:10137000814203D300680449884202D00120FFF76C
:1013800045BB704730000020A52E5AE207490222D3
:1013900048604270064A1278002A05D006C98A427F
:1013A00002D0C078FFF7FAB9704700003000002083
:1013B0004C00002070B5FFF7C9F900200446204A10
:1013C000204902E042F82040401C0B889842F9D3A3
:1013D0001D48342201881D48FFF774F91C48008815
:1013E00080B240F000421B4801681B48FFF76AF9D1
:1013F0001A48082201881A480068FFF763F9194D56
:10140000FF20194AE870EC8400212846FFF74CFCC5
:10141000164804210170446015480170C4600461DD
:1014200084821448154905600220687012480470CF
:1014300044700978C170BDE87040FFF767BC0000D8
:10144000DC080020A01A0008C41A00087000002060
:10145000A41A0008C81A0008E8010020EC1A0008C5
:101460000C000020F80800200F0A00082C090020BA
:10147000440900203000002058080020D01A00083D
:101480001B4810B5016841F47F01016000684FF00E
:101490007F4101EA00201649C0431439B0FA80F0B8
:1014A0000968C0F10800C1F30221814200D3481C41
:1014B0000F49091F0B686FF08072824063F31702B7
:1014C0000A60FFF7A7FA0B49002808600EDB00F15D
:1014D000E021FF2281F8002400F01F020121914049
:1014E0004009800000F1E020C0F8001110BD0000AC
:1014F00020ED00E03C0000200C4810B502680121FE
:1015000051700068FFF7B0FEFFF7E2FA0848016883
:10151000491C0160FFF700FB00F07EFA0548FFF769
:10152000ABFBBDE81040FFF731BF000030000020EA
:10153000400000202C090020002805D0810702D19E
:101540000178002900D000207047000030B50B4C16
:101550000023626805E095688D4204D8134612683E
:10156000491B002AF7D10260816012B19568691A9F
:1015700091600BB1186030BD606030BD2800002064
:101580002DE9F0411E46174680460D4611F0FF0F2B
:1015900000D14D1C1848FFF752FA041E16D0280A35
:1015A000E762E084E9B242462046E661FFF77CFB51
:1015B00001251248124905E000EB850252F8042C7F
:1015C00032B16D1C0A889542F6D90020BDE8F08141
:1015D000002DFAD000EB850040F8044C0948E57076
:1015E000007818B101212046FFF7C8F82046FFF720
:1015F000CBFA2846EAE7000070000020DC08002053
:10160000A01A00084C0000202DE9F05F584DDFF8CB
:101610005891DFF8588129684FF0010A002618B167
:10162000CA78AB46824243D14E70FEF718FE296855
:101630008862FFF799FE2868046A1FE06068C0B1FD
:101640002046FFF719FB07460021FFF739FE384611
:10165000FFF744FE87F801A039464648FFF7E8FD4A
:10166000E168A4F802A0A760386AE0603C620C461A
:1016700004E0E0686680A660E6600446002CDDD1E8
:101680002868C27808EB820141F8046CC16A3A48C4
:10169000FFF7C8FA2868C66299F8001011B1002156
:1016A000FFF76CF835482968FFF7BCFA2E6056E062
:1016B0003349098888420CD808EB800858F8045C44
:1016C0003DB12846FFF71EFE2846FFF707FE2C6AAD
:1016D00022E0FF20BDE8F09F6068C0B12046FFF720
:1016E000CBFA07460021FFF7EBFD3846FFF7F6FD82
:1016F00087F801A039461F48FFF79AFDE168A4F872
:1017000002A0A760386AE0603C620C4604E0E06832
:101710006680A660E6600446002CDDD148F8046CC3
:101720001548E96AFFF77EFAEE6299F8000018B1F1
:1017300000212846FFF722F829461048FFF772FAE1
:101740000C48DBF8001040688B7882789A4209D9FF
:1017500081F801A00748DBF80010FFF769FD0020C1
:10176000FFF712FA0020B5E74C000020DC0800204B
:10177000300000202C090020E8010020700000202B
:10178000A01A000870B51A4D80B11A4A128890420A
:101790001FD8194A02EB800050F8044CCCB1A1705C
:1017A00084F824102868A04205D014E028688170CD
:1017B000286880F82410114840688078884215D93C
:1017C0000E482968FFF734FD296801204870002081
:1017D0000AE0FF2070BD2046FFF750FD6078012829
:1017E00004D10648FFF748FAFFF7CEF9002070BD94
:1017F00030000020A01A0008DC0800202C0900207E
:1018000002480068002800D0C078704730000020EF
:1018100010B5002804D0FFF7A9FBFFF7D7F9402047
:1018200010BD000010B5134C207860B91248400775
:1018300005D1124801681048FFF75AFA08B185200F
:1018400010BDFFF7B7FD0E49FF20096888702078AA
:1018500058B900210B4800F041F80B4908600021FD
:101860000A4800F06BF80A49086001202070002047
:10187000607010BD28000020A8060020CC1A0008C7
:1018800030000020E41A000824000020D41A0008C8
:101890002000002070B50F4D687808B1002070BDA1
:1018A0000D4C206890F824100020FFF76BFF206893
:1018B000C178FF2903D1816A203181F309886168E9
:1018C00011B9606000202060FFF7DAFD0120687028
:1018D000E4E70000280000203000002010B50400DC
:1018E00005D0216819B1606808B102780AB10020FA
:1018F00010BD8900103189B2FFF758FA606810BD39
:101900003EB504000D464FF0800012D02178012929
:101910000FD12846FFF72AFB0246204601A9FFF710
:10192000CBFA012801D0102003E00DB1402000E0E7
:101930000020DDE9011203B030BD000070B50E4695
:1019400004002BD0206848B3B4F9040010F1030F51
:1019500024DB032822DCE16829B11148FFF77CF879
:1019600005001BD000E00025B4F90400E168001D6B
:1019700040EA012133462A462068FFF701FE40B1C4
:10198000084901EB8000084950F8040C826A516351
:1019900070BD1DB129460248FFF75AF9002070BDFD
:1019A000A8060020DC080020A509000810B5FFF7F4
:1019B00027FF002804D0034901EB800050F8040CF5
:1019C00010BD0000DC08002010B5FFF7B5FD18B110
:1019D000C18C19B1C46A02E0802010BD0024C07817
:1019E000FFF712FEFF2806D01CB121460348FFF77F
:1019F0002FF9002010BD812010BD0000A806002096
:101A000010B5FFF74DF920B141690A680169104628
:101A100010BD0020014610BD2DE9F041134E746841
:101A2000002C1CD0A068124F401E4FF00108A0608F
:101A300012E0254624687460002229463868FEF7C3
:101A4000CAFE10B10420FEF7E1FF6879012808D032
:101A500085F80480002C02D0A0680028E9D0BDE8F9
:101A6000F0812846E968FFF771FDF3E728000020C0
:101A7000240000204FF04070E1EE100A7047000093
:101A8000000000000000010203040607080900002E
:101A900065080008000000000100000000000000D0
:101AA00007000000C800020105000100DF2E000051
:101AB000010000000200010050000400E8030000E3
:101AC0000000000078010000C0040000B001000028
:101AD00010000000E1090008020000000100000001
:101AE000C8000000040000005000002000000000BA
:101AF000101B00080000002050000000D00100086A
:101B0000601B000850000020700F0000EC0100086E
:101B10000024F400000000000000000000000000AD
:101B2000810800080000000001000000C80000005B
:101B300000000000000000000000000000000000A5
:101B40000000000000000000000000000000000095
:101B50000000000000000000000000000000000085
:040000050800019559
:00000001FF
